:100000000C942A000C9447000C9447000C94470071
:100010000C9447000C9447000C9447000C94470044
:100020000C9447000C9447000C9447000C94470034
:100030000C9447000C9447000C9447000C94470024
:100040000C9447000C9447000C9447000C94470014
:100050000C94470011241FBECFE5D8E0DEBFCDBF12
:1000600011E0A0E6B0E0EEE0F6E202C005900D92ED
:10007000A431B107D9F711E0A4E1B1E001C01D92AC
:10008000AA31B107E1F70E940E0E0C9405130C94EF
:100090000000EF92FF920F931F937B018C0120E0F1
:1000A00030E040E05FE40E94490388238CF0C801FF
:1000B000B70120E030E040E05FE40E94C1010E940F
:1000C000A9039B01AC01205030404040504806C07D
:1000D000C801B7010E94A9039B01AC01B901CA0183
:1000E0001F910F91FF90EF900895A0E0B0E0EBE733
:1000F000F0E00C94CE12DC012B01FA019C919230BD
:1001000008F439C1EB018881823008F433C194309E
:1001100069F4843009F02FC111969C91119789815F
:10012000981709F428C1A0EFB0E025C1843009F484
:1001300021C18230A9F4923009F01DC19A01AD01AC
:1001400088E0EA010990AE01E90109929E0181501F
:10015000C1F7E201898111969C918923818308C1AD
:10016000923009F407C112962D903C901397EB0141
:100170008A819B811496AD90BD90CD90DC901797AD
:10018000EC80FD800E811F819101281B390BB90184
:1001900037FF04C066277727621B730B6032710537
:1001A0000CF061C0121613066CF537014801062EDB
:1001B00004C096948794779467940A94D2F721E0C8
:1001C00030E040E050E004C0220F331F441F551FB1
:1001D0006A95D2F721503040404050402E213F21B7
:1001E00040235123211531054105510521F021E01E
:1001F00030E040E050E079018A01E628F72808293C
:1002000019293CC0232BD1F1260E371E350146019A
:10021000062E04C096948794779467940A94D2F734
:1002200021E030E040E050E004C0220F331F441FC3
:10023000551F6A95D2F721503040404050402A2146
:100240003B214C215D21211531054105510521F04E
:1002500021E030E040E050E059016A01A628B728CB
:10026000C828D9280BC0821593052CF01C01AA249C
:10027000BB24650103C0EE24FF24870111969C91E5
:10028000D20111968C91981709F445C0992339F041
:10029000A80197012A193B094C095D0906C0A6016E
:1002A00095012E193F09400B510B57FD08C01182D3
:1002B0003382228224833583468357831DC081E0A5
:1002C00081833382228288279927DC01821B930B4A
:1002D000A40BB50B84839583A683B7830DC0220F2F
:1002E000331F441F551F24833583468357838281E0
:1002F000938101979383828324813581468157813D
:10030000DA01C9010197A109B1098F5F9F4FAF4F72
:10031000BF4328F30BC0918333822282EA0CFB1C7B
:100320000C1D1D1DE482F5820683178383E0808304
:10033000248135814681578157FF1AC0C901AA27F8
:1003400097FDA095BA2F81709070A070B0705695EF
:10035000479537952795822B932BA42BB52B848318
:100360009583A683B7838281938101969383828349
:10037000DF0101C0D201CD01CDB7DEB7E2E10C94BF
:10038000EA12A0E2B0E0E7ECF1E00C94DA12698343
:100390007A838B839C832D833E834F835887E9E048
:1003A000EE2EF12CEC0EFD1ECE010196B7010E943F
:1003B000D2048E010F5E1F4FCE010596B8010E9438
:1003C000D2048A8991E089278A8BC701B801AE01DE
:1003D000475E5F4F0E9475000E94FD03A096E6E015
:1003E0000C94F612A0E2B0E0E8EFF1E00C94DA121F
:1003F00069837A838B839C832D833E834F835887C5
:10040000F9E0EF2EF12CEC0EFD1ECE010196B701A6
:100410000E94D2048E010F5E1F4FCE010596B801D7
:100420000E94D204C701B801AE01475E5F4F0E942F
:1004300075000E94FD03A096E6E00C94F612A0E27F
:10044000B0E0E5E2F2E00C94CE1269837A838B830C
:100450009C832D833E834F835887CE010196BE0136
:10046000675F7F4F0E94D204CE010596BE016F5E8A
:100470007F4F0E94D2049985923088F0898982301A
:10048000C8F0943019F4823051F404C0843029F457
:10049000923081F480EF90E0C6C0923049F420E0C1
:1004A0009A858A89981321E02A87CE010996BBC0D4
:1004B000823049F420E09A858A89981321E02A8BBA
:1004C000CE014196B0C02D843E844F8458886D88FB
:1004D0007E888F88988CEE24FF248701AA24BB2471
:1004E000650140E050E060E070E0E0E0F0E0C10174
:1004F00081709070892BE9F0E60CF71C081D191D1E
:100500009A01AB012A0D3B1D4C1D5D1D80E090E062
:10051000A0E0B0E0E614F7040805190520F481E036
:1005200090E0A0E0B0E0BA01A901480F591F6A1F8E
:100530007B1FAA0CBB1CCC1CDD1C97FE08C081E0F5
:1005400090E0A0E0B0E0A82AB92ACA2ADB2A3196B6
:10055000E032F10549F0660C771C881C991C569412
:10056000479437942794C3CFFA85EA892B893C892D
:100570008B859C85280F391F2E5F3F4F17C0CA01FE
:1005800081709070892B61F016950795F794E79428
:1005900080E090E0A0E0B0E8E82AF92A0A2B1B2BC3
:1005A00076956795579547952F5F3F4F77FDE7CF36
:1005B0000CC0440F551F661F771F17FD4160EE0CDE
:1005C000FF1C001F111F21503040403090E05907A0
:1005D00090E0690790E4790760F32B8F3C8FDB0193
:1005E000CA018F779070A070B07080349105A1051A
:1005F000B10561F447FD0AC0E114F10401051105DC
:1006000029F0405C5F4F6F4F7F4F40781A8EFE1786
:1006100011F081E08A8F4D8F5E8F6F8F78A383E01A
:10062000898FCE0149960E94FD03A096E2E10C94C9
:10063000EA12A8E1B0E0EFE1F3E00C94DA1269838A
:100640007A838B839C832D833E834F83588789E0F5
:10065000E82EF12CEC0EFD1ECE010196B7010E9492
:10066000D2048E010F5E1F4FCE010596B8010E9485
:10067000D2048985823040F08989823028F0C70110
:10068000B8010E944A0501C08FEF6896E6E00C941D
:10069000F612A8E1B0E0EFE4F3E00C94DA1269831B
:1006A0007A838B839C832D833E834F83588789E095
:1006B000E82EF12CEC0EFD1ECE010196B7010E9432
:1006C000D2048E010F5E1F4FCE010596B8010E9425
:1006D000D2048985823040F08989823028F0C701B0
:1006E000B8010E944A0501C08FEF6896E6E00C94BD
:1006F000F612A8E1B0E0EFE7F3E00C94DA126983B8
:100700007A838B839C832D833E834F83588789E034
:10071000E82EF12CEC0EFD1ECE010196B7010E94D1
:10072000D2048E010F5E1F4FCE010596B8010E94C4
:10073000D2048985823040F08989823028F0C7014F
:10074000B8010E944A0501C081E06896E6E00C9479
:10075000F612ACE0B0E0EFEAF3E00C94DE1269834D
:100760007A838B839C83CE010196BE016B5F7F4FA2
:100770000E94D2048D81823061F1823050F1843048
:1007800021F48E81882351F12EC02F81388537FDC9
:1007900020C06E812F3131051CF06623F9F023C093
:1007A0008EE190E0821B930B29853A854B855C8511
:1007B00004C056954795379527958A95D2F76623B5
:1007C000B1F050954095309521953F4F4F4F5F4F79
:1007D0000EC020E030E040E050E009C02FEF3FEFD6
:1007E0004FEF5FE704C020E030E040E050E8B9019F
:1007F000CA012C96E2E00C94FA12DF92EF92FF927B
:100800000F931F93FC01E480F58006811781D1804E
:100810008081823048F480E090E0A0E1B0E0E82AF6
:10082000F92A0A2B1B2BA5C0843009F49FC0823003
:1008300021F4EE24FF24870105C0E114F104010531
:10084000110519F4E0E0F0E096C0628173819FEF3A
:10085000623879070CF05BC022E83FEF261B370BAC
:100860002A3131052CF020E030E040E050E02AC091
:10087000B801A701022E04C0769567955795479554
:100880000A94D2F781E090E0A0E0B0E004C0880FC5
:10089000991FAA1FBB1F2A95D2F70197A109B10979
:1008A0008E219F21A023B1230097A105B10521F03E
:1008B00081E090E0A0E0B0E09A01AB01282B392B59
:1008C0004A2B5B2BDA01C9018F779070A070B07052
:1008D00080349105A105B10539F427FF09C0205CDA
:1008E0003F4F4F4F5F4F04C0215C3F4F4F4F5F4F13
:1008F000E0E0F0E02030A0E03A07A0E04A07A0E402
:100900005A0710F0E1E0F0E079018A0127C0603871
:10091000710564F5FB01E158FF4FD801C7018F77DE
:100920009070A070B07080349105A105B10539F4C4
:10093000E7FE0DC080E490E0A0E0B0E004C08FE3EB
:1009400090E0A0E0B0E0E80EF91E0A1F1B1F17FFA1
:1009500005C016950795F794E794319687E01695AC
:100960000795F794E7948A95D1F705C0EE24FF2404
:100970008701EFEFF0E06E2F679566276795902F60
:100980009F77D794DD24D7948E2F8695492F462BB9
:10099000582F5D29B701CA011F910F91FF90EF9069
:1009A000DF900895FC01DB01408151812281622F9B
:1009B0006F7770E0221F2227221F9381892F880FD3
:1009C000822B282F30E0991F9927991F11969C930D
:1009D000119721153105A9F54115510561057105DD
:1009E00011F482E037C082E89FEF13969C938E93B8
:1009F00012979A01AB0167E0220F331F441F551F66
:100A00006A95D1F783E08C930DC0220F331F441FEA
:100A1000551F12968D919C911397019713969C9355
:100A20008E931297203080E0380780E0480780E4FA
:100A3000580758F314962D933D934D935C93179755
:100A400008952F3F310579F4411551056105710570
:100A500019F484E08C93089564FF03C081E08C93C3
:100A600012C01C9210C02F57304013963C932E9307
:100A7000129783E08C9387E0440F551F661F771F02
:100A80008A95D1F7706414964D935D936D937C9322
:100A9000179708951F93DC01FB019C91923008F495
:100AA00047C08081823008F443C0943051F41196DD
:100AB0001C91843099F58181682F70E0611B710968
:100AC0003FC0843021F0923031F48230B9F181811D
:100AD000882389F12DC011961C9111978230F1F075
:100AE00081811817D9F412962D913C911397828128
:100AF00093818217930794F028173907BCF0149656
:100B00008D919D910D90BC91A02D248135814681C0
:100B10005781281739074A075B0718F4112341F05A
:100B20000AC082179307A407B50740F4112319F0F0
:100B300061E070E005C06FEF7FEF02C060E070E041
:100B4000CB011F910895DF93CF93CDB7DEB72997DF
:100B50000FB6F894DEBF0FBECDBF89836A834B8387
:100B60008B81282F30E039872887888599850097E1
:100B700039F0288539852130310509F475C0E2C086
:100B80008981282F30E03F832E838E819F818130A1
:100B9000910559F12E813F81223031052CF48E814F
:100BA0009F81009769F0CEC02E813F8122303105B0
:100BB00089F18E819F818330910509F440C0C2C0C4
:100BC000ABE3B0E0EBE3F0E08081482F8A81282F8F
:100BD00030E081E090E0022E02C0880F991F0A9455
:100BE000E2F7809584238C93ADC0A8E3B0E0E8E3FE
:100BF000F0E08081482F8A81282F30E081E090E06A
:100C0000022E02C0880F991F0A94E2F78095842370
:100C10008C9398C0A5E3B0E0E5E3F0E08081482F35
:100C20008A81282F30E081E090E0022E02C0880FF8
:100C3000991F0A94E2F7809584238C9383C0A2E3E2
:100C4000B0E0E2E3F0E08081482F8A81282F30E095
:100C500081E090E0022E02C0880F991F0A94E2F70B
:100C6000809584238C936EC08981282F30E03D834A
:100C70002C838C819D818130910549F12C813D81AE
:100C8000223031052CF48C819D81009761F05AC08F
:100C90002C813D812230310571F18C819D81833021
:100CA0009105E9F14FC0ABE3B0E0EBE3F0E0808108
:100CB000482F8A81282F30E081E090E0022E02C088
:100CC000880F991F0A94E2F7842B8C933BC0A8E30A
:100CD000B0E0E8E3F0E08081482F8A81282F30E0FF
:100CE00081E090E0022E02C0880F991F0A94E2F77B
:100CF000842B8C9327C0A5E3B0E0E5E3F0E080818E
:100D0000482F8A81282F30E081E090E0022E02C037
:100D1000880F991F0A94E2F7842B8C9313C0A2E3E7
:100D2000B0E0E2E3F0E08081482F8A81282F30E0B4
:100D300081E090E0022E02C0880F991F0A94E2F72A
:100D4000842B8C9329960FB6F894DEBF0FBECDBFCF
:100D5000CF91DF910895DF93CF93CDB7DEB7299779
:100D60000FB6F894DEBF0FBECDBF89836A834B8375
:100D70008B81282F30E039872887888599850097CF
:100D800039F0288539852130310509F475C0E2C074
:100D90008981282F30E03F832E838E819F8181308F
:100DA000910559F12E813F81223031052CF48E813D
:100DB0009F81009769F0CEC02E813F81223031059E
:100DC00089F18E819F818330910509F440C0C2C0B2
:100DD000AAE3B0E0EAE3F0E08081482F8A81282F7F
:100DE00030E081E090E0022E02C0880F991F0A9443
:100DF000E2F7809584238C93ADC0A7E3B0E0E7E3EE
:100E0000F0E08081482F8A81282F30E081E090E057
:100E1000022E02C0880F991F0A94E2F7809584235E
:100E20008C9398C0A4E3B0E0E4E3F0E08081482F25
:100E30008A81282F30E081E090E0022E02C0880FE6
:100E4000991F0A94E2F7809584238C9383C0A1E3D1
:100E5000B0E0E1E3F0E08081482F8A81282F30E084
:100E600081E090E0022E02C0880F991F0A94E2F7F9
:100E7000809584238C936EC08981282F30E03D8338
:100E80002C838C819D818130910549F12C813D819C
:100E9000223031052CF48C819D81009761F05AC07D
:100EA0002C813D812230310571F18C819D8183300F
:100EB0009105E9F14FC0AAE3B0E0EAE3F0E08081F8
:100EC000482F8A81282F30E081E090E0022E02C076
:100ED000880F991F0A94E2F7842B8C933BC0A7E3F9
:100EE000B0E0E7E3F0E08081482F8A81282F30E0EE
:100EF00081E090E0022E02C0880F991F0A94E2F769
:100F0000842B8C9327C0A4E3B0E0E4E3F0E080817D
:100F1000482F8A81282F30E081E090E0022E02C025
:100F2000880F991F0A94E2F7842B8C9313C0A1E3D6
:100F3000B0E0E1E3F0E08081482F8A81282F30E0A3
:100F400081E090E0022E02C0880F991F0A94E2F718
:100F5000842B8C9329960FB6F894DEBF0FBECDBFBD
:100F6000CF91DF910895DF93CF9300D000D00F92FF
:100F7000CDB7DEB78A836B838A81282F30E03D832B
:100F80002C838C819D818130910539F12C813D81AB
:100F9000223031052CF48C819D81009761F052C084
:100FA0002C813D812230310551F18C819D8183302E
:100FB0009105B9F147C0E9E3F0E08081482F8B81CA
:100FC000282F30E081E090E0022E02C0880F991FA8
:100FD0000A94E2F78423898335C0E6E3F0E0808158
:100FE000482F8B81282F30E081E090E0022E02C054
:100FF000880F991F0A94E2F78423898323C0E3E3CF
:10100000F0E08081482F8B81282F30E081E090E054
:10101000022E02C0880F991F0A94E2F78423898365
:1010200011C0E0E3F0E08081482F8B81282F30E071
:1010300081E090E0022E02C0880F991F0A94E2F727
:101040008423898389810F900F900F900F900F90C8
:10105000CF91DF910895DF93CF9300D000D0CDB72B
:10106000DEB789836A838981282F30E03C832B8314
:101070008B819C8181309105D1F02B813C81223084
:1010800031052CF48B819C81009761F01EC02B816F
:101090003C812230310581F08B819C818330910528
:1010A00081F013C0EBE3F0E08A8180830EC0E8E3B7
:1010B000F0E08A81808309C0E5E3F0E08A818083E3
:1010C00004C0E2E3F0E08A8180830F900F900F90DC
:1010D0000F90CF91DF910895DF93CF9300D000D090
:1010E000CDB7DEB789836A838981282F30E03C83BE
:1010F0002B838B819C8181309105D1F02B813C81A8
:10110000223031052CF48B819C81009761F01EC048
:101110002B813C812230310581F08B819C81833091
:10112000910581F013C0EAE3F0E08A8180830EC06C
:10113000E7E3F0E08A81808309C0E4E3F0E08A819C
:10114000808304C0E1E3F0E08A8180830F900F90F8
:101150000F900F90CF91DF910895DF93CF9300D040
:1011600000D0CDB7DEB78A838A81282F30E03C8358
:101170002B838B819C8181309105D1F02B813C8127
:10118000223031052CF48B819C81009761F01EC0C8
:101190002B813C812230310581F08B819C81833011
:1011A000910581F013C0E9E3F0E0808189830EC0EE
:1011B000E6E3F0E08081898309C0E3E3F0E0808129
:1011C000898304C0E0E3F0E08081898389810F9006
:1011D0000F900F900F90CF91DF910895DF93CF93F1
:1011E000CDB7DEB7E8970FB6F894DEBF0FBECDBF20
:1011F00080E066E041E00E94AB0680E065E041E00F
:101200000E94AB0680E067E041E00E94AB0681E00F
:101210006FEF0E946C0880E090E0A0E0B2E48DAB3C
:101220009EABAFABB8AF6DA97EA98FA998AD20E0FA
:1012300030E04AEF54E40E941F02DC01CB0189AB8D
:101240009AABABABBCAB69A97AA98BA99CA920E0EE
:1012500030E040E85FE30E94790388232CF481E0CA
:1012600090E098AB8FA73FC069A97AA98BA99CA9E8
:1012700020E03FEF4FE757E40E94190318164CF5A2
:101280006DA97EA98FA998AD20E030E040E251E43D
:101290000E941F02DC01CB01BC01CD010E9449006C
:1012A000DC01CB0198AB8FA70FC088EC90E09EA724
:1012B0008DA78DA59EA50197F1F79EA78DA78FA558
:1012C00098A9019798AB8FA78FA598A9009769F760
:1012D00014C069A97AA98BA99CA90E944900DC01C4
:1012E000CB0198AB8FA78FA598A99CA78BA78BA59F
:1012F0009CA50197F1F79CA78BA78CE30E94E80AB5
:1013000080E090E0A0E8BFE38FA398A7A9A7BAA7C1
:101310006FA178A589A59AA520E030E04AEF54E4B2
:101320000E941F02DC01CB018BA39CA3ADA3BEA333
:101330006BA17CA18DA19EA120E030E040E85FE39D
:101340000E94790388232CF481E090E09AA389A37A
:101350003FC06BA17CA18DA19EA120E03FEF4FE794
:1013600057E40E94190318164CF56FA178A589A5BA
:101370009AA520E030E040E251E40E941F02DC0127
:10138000CB01BC01CD010E944900DC01CB019AA335
:1013900089A30FC088EC90E098A38F8F8F8D98A1C0
:1013A0000197F1F798A38F8F89A19AA101979AA32A
:1013B00089A389A19AA1009769F714C06BA17CA1A8
:1013C0008DA19EA10E944900DC01CB019AA389A3B3
:1013D00089A19AA19E8F8D8F8D8D9E8D0197F1F79A
:1013E0009E8F8D8F8CE00E94E80A80E090E0A0E85C
:1013F000BFE3898F9A8FAB8FBC8F698D7A8D8B8D70
:101400009C8D20E030E04AEF54E40E941F02DC0192
:10141000CB018D8B9E8BAF8BB88F6D897E898F8929
:10142000988D20E030E040E85FE30E947903882354
:101430002CF481E090E09C8B8B8B3FC06D897E8982
:101440008F89988D20E03FEF4FE757E40E94190302
:1014500018164CF5698D7A8D8B8D9C8D20E030E0CF
:1014600040E251E40E941F02DC01CB01BC01CD012E
:101470000E944900DC01CB019C8B8B8B0FC088EC58
:1014800090E09A8B898B89899A890197F1F79A8BD9
:10149000898B8B899C8901979C8B8B8B8B899C89F1
:1014A000009769F714C06D897E898F89988D0E9495
:1014B0004900DC01CB019C8B8B8B8B899C89988BA1
:1014C0008F878F8598890197F1F7988B8F8781E0B7
:1014D0000E94E80A80E090E0A0E8BFE38B879C8749
:1014E000AD87BE876B857C858D859E8520E030E04D
:1014F0004AEF54E40E941F02DC01CB018F839887DE
:10150000A987BA876F81788589859A8520E030E040
:1015100040E85FE30E94790388232CF481E090E0A7
:101520009E838D833FC06F81788589859A8520E071
:101530003FEF4FE757E40E94190318164CF56B85EF
:101540007C858D859E8520E030E040E251E40E945C
:101550001F02DC01CB01BC01CD010E944900DC016E
:10156000CB019E838D830FC088EC90E09C838B839E
:101570008B819C810197F1F79C838B838D819E8168
:1015800001979E838D838D819E81009769F714C09A
:101590006F81788589859A850E944900DC01CB019D
:1015A0009E838D838D819E819A83898389819A818F
:1015B0000197F1F79A83898386E00E94E80AE8960A
:1015C0000FB6F894DEBF0FBECDBFCF91DF91089567
:1015D000DF93CF93CDB7DEB72F970FB6F894DEBF6A
:1015E0000FBECDBF8F8780E065E040E00E94A3057D
:1015F00080E066E040E00E94A30581E06F850E94E4
:101600002B0880E067E041E00E94A30580E090E0C5
:10161000A8E4B2E48B879C87AD87BE876B857C8509
:101620008D859E8520E030E04AEF54E40E941F0241
:10163000DC01CB018F839887A987BA876F81788572
:1016400089859A8520E030E040E85FE30E947903D5
:1016500088232CF481E090E09E838D833FC06F81CE
:10166000788589859A8520E03FEF4FE757E40E940F
:10167000190318164CF56B857C858D859E8520E0B9
:1016800030E040E251E40E941F02DC01CB01BC01CA
:10169000CD010E944900DC01CB019E838D830FC0E8
:1016A00088EC90E09C838B838B819C810197F1F780
:1016B0009C838B838D819E8101979E838D838D81F9
:1016C0009E81009769F714C06F81788589859A8516
:1016D0000E944900DC01CB019E838D838D819E8118
:1016E0009A83898389819A810197F1F79A83898303
:1016F00080E067E040E00E94A3052F960FB6F894C3
:10170000DEBF0FBECDBFCF91DF910895DF93CF93A2
:10171000CDB7DEB72F970FB6F894DEBF0FBECDBFA3
:101720008F8780E065E041E00E94A30580E066E0ED
:1017300040E00E94A30581E06F850E942B0880E0B5
:1017400067E041E00E94A30580E090E0A8E4B2E4F5
:101750008B879C87AD87BE876B857C858D859E85B5
:1017600020E030E04AEF54E40E941F02DC01CB018C
:101770008F839887A987BA876F81788589859A85AD
:1017800020E030E040E85FE30E94790388232CF4F6
:1017900081E090E09E838D833FC06F81788589854D
:1017A0009A8520E03FEF4FE757E40E94190318168F
:1017B0004CF56B857C858D859E8520E030E040E290
:1017C00051E40E941F02DC01CB01BC01CD010E944B
:1017D0004900DC01CB019E838D830FC088EC90E033
:1017E0009C838B838B819C810197F1F79C838B83F6
:1017F0008D819E8101979E838D838D819E8100972F
:1018000069F714C06F81788589859A850E9449009F
:10181000DC01CB019E838D838D819E819A83898398
:1018200089819A810197F1F79A83898380E067E043
:1018300040E00E94A3052F960FB6F894DEBF0FBEBE
:10184000CDBFCF91DF910895DF93CF9300D000D02B
:1018500000D0CDB7DEB79E838D831C821B8222C051
:101860008B819C819C01220F331FC901880F991F16
:10187000880F991FF901E80FF91F8D819E812AE0D9
:1018800030E0B9010E94BA128E0F9F1F9C838B8398
:101890008D819E812AE030E0B9010E94BA12CB010D
:1018A0009E838D838D819E810097D1F613C08B819D
:1018B0009C812AE030E0B9010E94BA129A838983A0
:1018C0008B819C812AE030E0B9010E94BA12CB01E1
:1018D0009C838B838B819C81009749F726960FB65A
:1018E000F894DEBF0FBECDBFCF91DF910895DF9397
:1018F000CF9300D00F92CDB7DEB79B838A83198236
:101900000EC08981282F30E08A819B81FC01E20F83
:10191000F31F80810E94860B89818F5F8983898173
:10192000282F30E08A819B81FC01E20FF31F808128
:10193000882339F70F900F900F90CF91DF91089582
:10194000DF93CF9300D000D0CDB7DEB789836A8311
:101950008981282F30E03C832B838B819C818130CF
:10196000910531F02B813C812230310531F009C0E5
:101970008A8180580E94E80A04C08A8180540E94AB
:10198000E80A0F900F900F900F90CF91DF9108957C
:10199000DF93CF93CDB7DEB727970FB6F894DEBFAE
:1019A0000FBECDBF9C838B836D834E832F838D8130
:1019B000882F90E0880F991F880F991F880F991F13
:1019C0008A838A81805C0E94E80A19820EC089811C
:1019D000282F30E08B819C81FC01E20FF31F808176
:1019E0000E94860B89818F5F89838981883078F393
:1019F0008E816F810E94A00C8D810E94860B27969C
:101A00000FB6F894DEBF0FBECDBFCF91DF91089522
:101A1000DF93CF93CDB7DEB783E064E041E00E946F
:101A2000AB0683E065E041E00E94AB0683E066E040
:101A300041E00E94AB0683E067E041E00E94AB0614
:101A400083E060E040E00E94AB0683E061E040E0BC
:101A50000E94AB0683E062E040E00E94AB0683E0B8
:101A600063E040E00E94AB0683E06FEF0E942B082A
:101A7000CF91DF910895DF93CF9300D000D00F92E4
:101A8000CDB7DEB78FEF8C8319821B8267C08B8145
:101A9000882F90E0FC01E850FF4F908183E0692F90
:101AA00040E00E94A3051A8243C08A81882F90E0FB
:101AB000FC01E450FF4F908183E0692F0E94B3073F
:101AC0008D838D81882389F58A81882F90E0FC01A0
:101AD000E450FF4F908183E0692F0E94B3078D830C
:101AE0000CC08A81882F90E0FC01E450FF4F908168
:101AF00083E0692F0E94B3078D838D81882389F34A
:101B00008A81482F50E08B81282F30E0CA01880F4E
:101B1000991F880F991F820F931FFC01E050FF4F00
:101B200080818C8381E0898307C08A818F5F8A836B
:101B30008A81843008F4B9CF8B81882F90E0FC0132
:101B4000E850FF4F908183E0692F41E00E94A30598
:101B50008981813039F08B818F5F8B838B818430D9
:101B600008F495CF8C810F900F900F900F900F90ED
:101B7000CF91DF910895DF93CF93CDB7DEB782E0A9
:101B800060E041E00E94AB0682E061E041E00E943B
:101B9000AB06CF91DF910895DF93CF9300D00F92E2
:101BA000CDB7DEB789838981282F30E03B832A8334
:101BB0008A819B81009731F02A813B812130310558
:101BC00061F015C082E061E040E00E94A30582E080
:101BD00060E041E00E94A3050AC082E060E040E0CE
:101BE0000E94A30582E061E041E00E94A3050F90FE
:101BF0000F900F90CF91DF910895DF93CF93CDB7E2
:101C0000DEB782E060E040E00E94A30582E061E090
:101C100040E00E94A305CF91DF9108950F931F9399
:101C2000DF93CF93CDB7DEB7CA55D0400FB6F89447
:101C3000DEBF0FBECDBF0E94BB0D0E94EE080E940A
:101C4000080DFE01E85AFF4F8FEF8083FE01E95A2D
:101C5000FF4F1082FE01EB5AFF4F10828091190155
:101C6000882359F481E00E94E80A80E690E00E940F
:101C7000770C82E061E00E94A00C0E943B0DFE0107
:101C8000E85AFF4F8083FE01E85AFF4F80818F3F63
:101C9000A1F38AE20E94860B80911901882F90E0BF
:101CA000DC01AC5EBE4FFE01E85AFF4F80818C9391
:101CB000FE01E85AFF4F8FEF8083809119018F5FFB
:101CC0008093190180911901843041F61092190115
:101CD000FE01EA5AFF4F108232C0FE01EA5AFF4F5E
:101CE0008081882F90E0FC01EC5EFE4F2081FE0198
:101CF000EA5AFF4F8081882F90E0FC01E05FFE4FA1
:101D000080812817B9F482E061E00E94A00CDE0116
:101D1000AB5ABF4FFE01EB5AFF4F80818F5F8C9310
:101D2000DE01AA5ABF4FFE01EA5AFF4F80818F5F42
:101D30008C9305C082E061E00E94A00C06C0FE0109
:101D4000EA5AFF4F8081843040F2FE01EB5AFF4F88
:101D50008081843009F0DDC381E00E94E80A81E0DF
:101D600065E00E94A00C8BE690E00E94770C82E078
:101D700063E00E94A00C84E790E00E94770CFE01D3
:101D8000EF5AFF4F80E090E0A6E9B3E480839183AF
:101D9000A283B3838E01035B1F4FFE01EF5AFF4FF7
:101DA000608171818281938120E030E04AEF54E4C8
:101DB0000E941F02DC01CB01F80180839183A28382
:101DC000B383FE01E35BFF4F608171818281938168
:101DD00020E030E040E85FE30E947903882344F488
:101DE000FE01E55BFF4F81E090E09183808364C05A
:101DF000FE01E35BFF4F608171818281938120E06E
:101E00003FEF4FE757E40E94190318160CF043C048
:101E1000FE01EF5AFF4F608171818281938120E042
:101E200030E040E251E40E941F02DC01CB018E0150
:101E3000055B1F4FBC01CD010E944900DC01CB01B5
:101E4000F801918380831FC0FE01E75BFF4F88ECA0
:101E500090E091838083FE01E75BFF4F8081918159
:101E60000197F1F7FE01E75BFF4F91838083DE016D
:101E7000A55BBF4FFE01E55BFF4F8081918101971C
:101E800011969C938E93FE01E55BFF4F80819181BB
:101E90000097D1F627C08E01055B1F4FFE01E35B63
:101EA000FF4F60817181828193810E944900DC0132
:101EB000CB01F80191838083DE01A95BBF4FFE0156
:101EC000E55BFF4F808191818D939C93FE01E95BDF
:101ED000FF4F808191810197F1F7FE01E95BFF4F90
:101EE0009183808381E00E94E80A83E890E00E9469
:101EF000770CFE01ED5BFF4F80E090E0A6E9B3E4D4
:101F000080839183A283B3838E01015C1F4FFE0106
:101F1000ED5BFF4F608171818281938120E030E031
:101F20004AEF54E40E941F02DC01CB01F8018083D8
:101F30009183A283B383FE01FF96608171818281C8
:101F4000938120E030E040E85FE30E94790388233A
:101F50002CF481E090E09EAF8DAF46C0FE01FF966D
:101F6000608171818281938120E03FEF4FE757E4E8
:101F70000E941903181664F5FE01ED5BFF4F6081A6
:101F800071818281938120E030E040E251E40E943F
:101F90001F02DC01CB01BC01CD010E944900DC0124
:101FA000CB019EAF8DAF0FC088EC90E09CAF8BAFA4
:101FB0008BAD9CAD0197F1F79CAF8BAF8DAD9EAD16
:101FC00001979EAF8DAF8DAD9EAD009769F716C09E
:101FD000FE01FF9660817181828193810E94490098
:101FE000DC01CB019EAF8DAF8DAD9EAD9AAF89AFB9
:101FF00089AD9AAD0197F1F79AAF89AF81E00E9460
:10200000E80A81E061E00E94A00C81E990E00E9472
:10201000770C82E061E00E94A00C8DE990E00E94C4
:10202000770C80E090E0AAEFB3E48DAB9EABAFAB52
:10203000B8AF6DA97EA98FA998AD20E030E04AEF36
:1020400054E40E941F02DC01CB0189AB9AABABAB1D
:10205000BCAB69A97AA98BA99CA920E030E040E833
:102060005FE30E94790388232CF481E090E098AB31
:102070008FA73FC069A97AA98BA99CA920E03FEF4F
:102080004FE757E40E94190318164CF56DA97EA975
:102090008FA998AD20E030E040E251E40E941F0299
:1020A000DC01CB01BC01CD010E944900DC01CB0168
:1020B00098AB8FA70FC088EC90E09EA78DA78DA549
:1020C0009EA50197F1F79EA78DA78FA598A90197C7
:1020D00098AB8FA78FA598A9009769F714C069A935
:1020E0007AA98BA99CA90E944900DC01CB0198AB7D
:1020F0008FA78FA598A99CA78BA78BA59CA50197B7
:10210000F1F79CA78BA781E00E94E80A8DEA90E096
:102110000E94770C82E061E00E94A00CFE01E85A68
:10212000FF4F8FEF80830E943B0DFE01E85AFF4F67
:102130008083FE01E85AFF4F80818F3FA1F3FE01AB
:10214000E85AFF4F80810E94860BFE01E85AFF4F3C
:102150008081813339F0FE01E85AFF4F808182335C
:1021600009F0D1C1FE01E85AFF4F8081882F90E02D
:102170008133910509F0B6CE81E00E94E80A85EB33
:1021800090E00E94770C82E061E00E94A00C8CEB52
:1021900090E00E94770C80E090E0AAEFB3E48FA378
:1021A00098A7A9A7BAA76FA178A589A59AA520E0A5
:1021B00030E04AEF54E40E941F02DC01CB018BA304
:1021C0009CA3ADA3BEA36BA17CA18DA19EA120E089
:1021D00030E040E85FE30E94790388232CF481E03B
:1021E00090E09AA389A33FC06BA17CA18DA19EA181
:1021F00020E03FEF4FE757E40E94190318164CF513
:102200006FA178A589A59AA520E030E040E251E4CD
:102210000E941F02DC01CB01BC01CD010E944900DC
:10222000DC01CB019AA389A30FC088EC90E098A3AE
:102230008F8F8F8D98A10197F1F798A38F8F89A128
:102240009AA101979AA389A389A19AA1009769F7F6
:1022500014C06BA17CA18DA19EA10E944900DC014C
:10226000CB019AA389A389A19AA19E8F8D8F8D8D71
:102270009E8D0197F1F79E8F8D8FFE01E85AFF4FDB
:102280008FEF80830E943B0DFE01E85AFF4F808351
:10229000FE01E85AFF4F80818F3FA1F381E00E9449
:1022A000E80A8DEA90E00E94770C82E061E00E94EB
:1022B000A00CFE01E85AFF4F80810E94860BFE01B0
:1022C000E85AFF4F8081282F30E06B963FAF2EAF4A
:1022D0006B976B968EAD9FAD6B978133910549F0EF
:1022E0006B96EEADFFAD6B97E233F10509F486C056
:1022F000F9CD81E00E94CC0D81E00E94E80A84ECD7
:1023000090E00E94770C82E061E00E94A00C8DECCE
:1023100090E00E94770C80E090E0AAEFB4E4898F0F
:102320009A8FAB8FBC8F698D7A8D8B8D9C8D20E0C1
:1023300030E04AEF54E40E941F02DC01CB018D8B98
:102340009E8BAF8BB88F6D897E898F89988D20E0A9
:1023500030E040E85FE30E94790388232CF481E0B9
:1023600090E09C8B8B8B3FC06D897E898F89988D87
:1023700020E03FEF4FE757E40E94190318164CF591
:10238000698D7A8D8B8D9C8D20E030E040E251E4A8
:102390000E941F02DC01CB01BC01CD010E9449005B
:1023A000DC01CB019C8B8B8B0FC088EC90E09A8B6F
:1023B000898B89899A890197F1F79A8B898B8B8907
:1023C0009C8901979C8B8B8B8B899C89009769F7E3
:1023D00089CD6D897E898F89988D0E944900DC01A5
:1023E000CB019C8B8B8B8B899C89988B8F878F855E
:1023F00098890197F1F7988B8F8774CD80E00E94C0
:10240000CC0D81E00E94E80A84EC90E00E94770CF9
:1024100082E061E00E94A00C81ED90E00E94770CC8
:1024200080E090E0AAEFB4E48B879C87AD87BE87FD
:102430006B857C858D859E8520E030E04AEF54E4F5
:102440000E941F02DC01CB018F839887A987BA877E
:102450006F81788589859A8520E030E040E85FE3E8
:102460000E94790388232CF481E090E09E838D8381
:102470003FC06F81788589859A8520E03FEF4FE7DF
:1024800057E40E94190318164CF56B857C858D85E1
:102490009E8520E030E040E251E40E941F02DC0112
:1024A000CB01BC01CD010E944900DC01CB019E8320
:1024B0008D830FC088EC90E09C838B838B819C8103
:1024C0000197F1F79C838B838D819E8101979E8379
:1024D0008D838D819E81009769F704CD6F8178850A
:1024E00089859A850E944900DC01CB019E838D83FA
:1024F0008D819E819A83898389819A810197F1F7E1
:102500009A838983EFCCFE01E85AFF4F8FEF8083D7
:10251000A5CBFE01EB5AFF4F8081843009F49ECB9E
:1025200082E061E00E94A00C81E00E94E80A8091B4
:1025300018018F5F80931801809118018330A9F4EE
:1025400081E00E94E80A86ED90E00E94770C80E02E
:1025500090E0C65ADF4F0FB6F894DEBF0FBECDBF76
:10256000CF91DF911F910F91089585EE90E00E9429
:10257000770C74CBAA1BBB1B51E107C0AA1FBB1F62
:10258000A617B70710F0A61BB70B881F991F5A95FF
:10259000A9F780959095BC01CD0108952F923F92A7
:1025A0004F925F926F927F928F929F92AF92BF9263
:1025B000CF92DF92EF92FF920F931F93CF93DF930F
:1025C000CDB7DEB7CA1BDB0B0FB6F894DEBF0FBE6C
:1025D000CDBF09942A88398848885F846E847D84B9
:1025E0008C849B84AA84B984C884DF80EE80FD80BB
:1025F0000C811B81AA81B981CE0FD11D0FB6F89431
:0E260000DEBF0FBECDBFED010895F894FFCFF1
:10260E00656E74657220706173730057656C636FCD
:10261E006D652100546F206F757220737973746528
:10262E006D200053454C454354204D4F44452020CA
:10263E0000312D4443204D4F544F522000322D2057
:10264E00536572766F204D4F544F52200043484FC2
:10265E004943452000312D2043572000322D204381
:10266E00435720004D6F746F72204F4E004357201A
:10267E000043435720004E6F206D6F7265207472B9
:10268E00696573200054727920416761696E20007C
:10269E000000000000000000040506070001020310
:1026AE003738392F3435362A3132332D23303D2BFE
:0426BE00313233344E
:00000001FF
